{
  "contractName": "ReceiptSystem",
  "abi": [
    {
      "anonymous": false,
      "inputs": [
        {
          "indexed": false,
          "internalType": "uint256",
          "name": "Rid",
          "type": "uint256"
        },
        {
          "indexed": false,
          "internalType": "uint256",
          "name": "Cid",
          "type": "uint256"
        },
        {
          "indexed": false,
          "internalType": "uint256",
          "name": "Sid",
          "type": "uint256"
        },
        {
          "indexed": false,
          "internalType": "string",
          "name": "date",
          "type": "string"
        },
        {
          "indexed": false,
          "internalType": "string",
          "name": "time",
          "type": "string"
        }
      ],
      "name": "LogReceipt",
      "type": "event"
    },
    {
      "constant": true,
      "inputs": [],
      "name": "ReceiptCount",
      "outputs": [
        {
          "internalType": "uint256",
          "name": "",
          "type": "uint256"
        }
      ],
      "payable": false,
      "stateMutability": "view",
      "type": "function"
    },
    {
      "constant": true,
      "inputs": [],
      "name": "receiptmessage",
      "outputs": [
        {
          "internalType": "string",
          "name": "",
          "type": "string"
        }
      ],
      "payable": false,
      "stateMutability": "view",
      "type": "function"
    },
    {
      "constant": false,
      "inputs": [
        {
          "internalType": "uint256",
          "name": "_Rid",
          "type": "uint256"
        },
        {
          "internalType": "uint256",
          "name": "_Cid",
          "type": "uint256"
        },
        {
          "internalType": "uint256",
          "name": "_Sid",
          "type": "uint256"
        },
        {
          "internalType": "string",
          "name": "_RDate",
          "type": "string"
        },
        {
          "internalType": "string",
          "name": "_Rtime",
          "type": "string"
        }
      ],
      "name": "insertReceipt",
      "outputs": [],
      "payable": false,
      "stateMutability": "nonpayable",
      "type": "function"
    },
    {
      "constant": true,
      "inputs": [
        {
          "internalType": "uint256",
          "name": "index",
          "type": "uint256"
        }
      ],
      "name": "getReceipt",
      "outputs": [
        {
          "internalType": "uint256",
          "name": "_Rid",
          "type": "uint256"
        },
        {
          "internalType": "uint256",
          "name": "_Cid",
          "type": "uint256"
        },
        {
          "internalType": "uint256",
          "name": "_Sid",
          "type": "uint256"
        },
        {
          "internalType": "string",
          "name": "_Rdate",
          "type": "string"
        },
        {
          "internalType": "string",
          "name": "_Rtime",
          "type": "string"
        }
      ],
      "payable": false,
      "stateMutability": "view",
      "type": "function"
    },
    {
      "constant": true,
      "inputs": [],
      "name": "getReceiptCount",
      "outputs": [
        {
          "internalType": "uint256",
          "name": "count",
          "type": "uint256"
        }
      ],
      "payable": false,
      "stateMutability": "view",
      "type": "function"
    }
  ],
  "bytecode": "0x6080604052600080556040518060400160405280600b81526020017f68656c6c6f20776f726c6400000000000000000000000000000000000000000081525060019080519060200190610053929190610066565b5034801561006057600080fd5b5061010b565b828054600181600116156101000203166002900490600052602060002090601f016020900481019282601f106100a757805160ff19168380011785556100d5565b828001600101855582156100d5579182015b828111156100d45782518255916020019190600101906100b9565b5b5090506100e291906100e6565b5090565b61010891905b808211156101045760008160009055506001016100ec565b5090565b90565b6108e38061011a6000396000f3fe608060405234801561001057600080fd5b50600436106100575760003560e01c8063040875fc1461005c578063519e3f7e1461007a5780638fa2e104146100fd578063b63e6ac31461011b578063ec23e7ba14610243575b600080fd5b6100646103b3565b6040518082815260200191505060405180910390f35b6100826103bc565b6040518080602001828103825283818151815260200191508051906020019080838360005b838110156100c25780820151818401526020810190506100a7565b50505050905090810190601f1680156100ef5780820380516001836020036101000a031916815260200191505b509250505060405180910390f35b61010561045a565b6040518082815260200191505060405180910390f35b6101476004803603602081101561013157600080fd5b8101908080359060200190929190505050610460565b604051808681526020018581526020018481526020018060200180602001838103835285818151815260200191508051906020019080838360005b8381101561019d578082015181840152602081019050610182565b50505050905090810190601f1680156101ca5780820380516001836020036101000a031916815260200191505b50838103825284818151815260200191508051906020019080838360005b838110156102035780820151818401526020810190506101e8565b50505050905090810190601f1680156102305780820380516001836020036101000a031916815260200191505b5097505050505050505060405180910390f35b6103b1600480360360a081101561025957600080fd5b810190808035906020019092919080359060200190929190803590602001909291908035906020019064010000000081111561029457600080fd5b8201836020820111156102a657600080fd5b803590602001918460018302840111640100000000831117156102c857600080fd5b91908080601f016020809104026020016040519081016040528093929190818152602001838380828437600081840152601f19601f8201169050808301925050505050505091929192908035906020019064010000000081111561032b57600080fd5b82018360208201111561033d57600080fd5b8035906020019184600183028401116401000000008311171561035f57600080fd5b91908080601f016020809104026020016040519081016040528093929190818152602001838380828437600081840152601f19601f820116905080830192505050505050509192919290505050610624565b005b60008054905090565b60018054600181600116156101000203166002900480601f0160208091040260200160405190810160405280929190818152602001828054600181600116156101000203166002900480156104525780601f1061042757610100808354040283529160200191610452565b820191906000526020600020905b81548152906001019060200180831161043557829003601f168201915b505050505081565b60005481565b6000806000606080600260008781526020019081526020016000206000015460026000888152602001908152602001600020600101546002600089815260200190815260200160002060020154600260008a8152602001908152602001600020600301600260008b8152602001908152602001600020600401818054600181600116156101000203166002900480601f01602080910402602001604051908101604052809291908181526020018280546001816001161561010002031660029004801561056e5780601f106105435761010080835404028352916020019161056e565b820191906000526020600020905b81548152906001019060200180831161055157829003601f168201915b50505050509150808054600181600116156101000203166002900480601f01602080910402602001604051908101604052809291908181526020018280546001816001161561010002031660029004801561060a5780601f106105df5761010080835404028352916020019161060a565b820191906000526020600020905b8154815290600101906020018083116105ed57829003601f168201915b505050505090509450945094509450945091939590929450565b600080815480929190600101919050555084600260008054815260200190815260200160002060000181905550836002600080548152602001908152602001600020600101819055508260026000805481526020019081526020016000206002018190555081600260008054815260200190815260200160002060030190805190602001906106b4929190610809565b5080600260008054815260200190815260200160002060040190805190602001906106e0929190610809565b507f71dd997b648f9d2ce634e166adf8cc5bb911b119e5a04a536cf502a22e3afe438585858585604051808681526020018581526020018481526020018060200180602001838103835285818151815260200191508051906020019080838360005b8381101561075d578082015181840152602081019050610742565b50505050905090810190601f16801561078a5780820380516001836020036101000a031916815260200191505b50838103825284818151815260200191508051906020019080838360005b838110156107c35780820151818401526020810190506107a8565b50505050905090810190601f1680156107f05780820380516001836020036101000a031916815260200191505b5097505050505050505060405180910390a15050505050565b828054600181600116156101000203166002900490600052602060002090601f016020900481019282601f1061084a57805160ff1916838001178555610878565b82800160010185558215610878579182015b8281111561087757825182559160200191906001019061085c565b5b5090506108859190610889565b5090565b6108ab91905b808211156108a757600081600090555060010161088f565b5090565b9056fea265627a7a723158209c6fedcdf61fe409ecf517d9840dd0edf69dfa7350d122ba59875de52af1876364736f6c63430005100032",
  "source": "pragma solidity >=0.4.22 <0.8.0;\n\n\ncontract ReceiptSystem{\n    uint public ReceiptCount = 0;\n    string public receiptmessage = \"hello world\";\n    struct Receipt{\n        // uint Rid;\n        // uint Mid;\n        // uint Sid;\n        // uint cost;\n        // string datetime;\n        uint Rid;\n        uint Cid;\n        uint Sid;\n        string date;\n        string time;\n    }\n    event LogReceipt(uint Rid, uint Cid, uint Sid, string date, string time);\n    mapping(uint => Receipt) private Receipts;\n    function insertReceipt(\n        uint _Rid,\n        uint _Cid,\n        uint _Sid,\n        string memory _RDate,\n        string memory _Rtime)\n        public {\n            ReceiptCount++;\n            Receipts[ReceiptCount].Rid = _Rid;\n            Receipts[ReceiptCount].Cid = _Cid;\n            Receipts[ReceiptCount].Sid = _Sid;\n            Receipts[ReceiptCount].date = _RDate;\n            Receipts[ReceiptCount].time = _Rtime;\n            emit LogReceipt(_Rid, _Cid, _Sid, _RDate, _Rtime);\n    }\n    function getReceipt(\n        uint index\n    )\n    public \n    view\n    returns(uint _Rid, uint _Cid, uint _Sid, string memory _Rdate, string memory _Rtime){\n        return(\n            Receipts[index].Rid,\n            Receipts[index].Cid,\n            Receipts[index].Sid,\n            Receipts[index].date,\n            Receipts[index].time);\n        \n    }\n    function getReceiptCount() \n    public \n    view\n    returns(uint count){\n        return ReceiptCount;\n    }\n    \n}\n",
  "sourcePath": "/Users/theebankumaresan/Documents/Capstone/BlockchainApp/POP-Code-SmartContract/contracts/ReceiptSystem.sol",
  "compiler": {
    "name": "solc",
    "version": "0.5.16+commit.9c3226ce.Emscripten.clang"
  },
  "schemaVersion": "3.4.6",
  "updatedAt": "2022-10-19T20:18:17.587Z",
  "networkType": "ethereum",
  "devdoc": {
    "methods": {}
  },
  "userdoc": {
    "methods": {}
  }
}