{
  "contractName": "ReceiptSystem",
  "abi": [
    {
      "anonymous": false,
      "inputs": [
        {
          "indexed": false,
          "internalType": "uint256",
          "name": "Rid",
          "type": "uint256"
        },
        {
          "indexed": false,
          "internalType": "string",
          "name": "DateTime",
          "type": "string"
        },
        {
          "indexed": false,
          "internalType": "uint256",
          "name": "Cost",
          "type": "uint256"
        },
        {
          "indexed": false,
          "internalType": "uint256",
          "name": "Mid",
          "type": "uint256"
        },
        {
          "indexed": false,
          "internalType": "uint256",
          "name": "Cid",
          "type": "uint256"
        },
        {
          "indexed": false,
          "internalType": "uint256",
          "name": "ReceiptCount",
          "type": "uint256"
        }
      ],
      "name": "LogReceipt",
      "type": "event"
    },
    {
      "constant": true,
      "inputs": [],
      "name": "ReceiptCount",
      "outputs": [
        {
          "internalType": "uint256",
          "name": "",
          "type": "uint256"
        }
      ],
      "payable": false,
      "stateMutability": "view",
      "type": "function"
    },
    {
      "constant": false,
      "inputs": [
        {
          "internalType": "uint256",
          "name": "_Rid",
          "type": "uint256"
        },
        {
          "internalType": "string",
          "name": "_DateTime",
          "type": "string"
        },
        {
          "internalType": "uint256",
          "name": "_Cost",
          "type": "uint256"
        },
        {
          "internalType": "uint256",
          "name": "_Mid",
          "type": "uint256"
        },
        {
          "internalType": "uint256",
          "name": "_Cid",
          "type": "uint256"
        }
      ],
      "name": "insertReceipt",
      "outputs": [],
      "payable": false,
      "stateMutability": "nonpayable",
      "type": "function"
    },
    {
      "constant": true,
      "inputs": [
        {
          "internalType": "uint256",
          "name": "index",
          "type": "uint256"
        }
      ],
      "name": "getReceipt",
      "outputs": [
        {
          "internalType": "uint256",
          "name": "Rid",
          "type": "uint256"
        },
        {
          "internalType": "string",
          "name": "DateTime",
          "type": "string"
        },
        {
          "internalType": "uint256",
          "name": "Cost",
          "type": "uint256"
        },
        {
          "internalType": "uint256",
          "name": "Mid",
          "type": "uint256"
        },
        {
          "internalType": "uint256",
          "name": "Cid",
          "type": "uint256"
        }
      ],
      "payable": false,
      "stateMutability": "view",
      "type": "function"
    },
    {
      "constant": true,
      "inputs": [],
      "name": "getReceiptCount",
      "outputs": [
        {
          "internalType": "uint256",
          "name": "count",
          "type": "uint256"
        }
      ],
      "payable": false,
      "stateMutability": "view",
      "type": "function"
    }
  ],
  "bytecode": "0x60806040526000805534801561001457600080fd5b506105c0806100246000396000f3fe608060405234801561001057600080fd5b506004361061004c5760003560e01c8063040875fc146100515780638fa2e1041461006f578063af601a931461008d578063b63e6ac314610170575b600080fd5b610059610233565b6040518082815260200191505060405180910390f35b61007761023c565b6040518082815260200191505060405180910390f35b61016e600480360360a08110156100a357600080fd5b8101908080359060200190929190803590602001906401000000008111156100ca57600080fd5b8201836020820111156100dc57600080fd5b803590602001918460018302840111640100000000831117156100fe57600080fd5b91908080601f016020809104026020016040519081016040528093929190818152602001838380828437600081840152601f19601f820116905080830192505050505050509192919290803590602001909291908035906020019092919080359060200190929190505050610242565b005b61019c6004803603602081101561018657600080fd5b81019080803590602001909291905050506103bc565b6040518086815260200180602001858152602001848152602001838152602001828103825286818151815260200191508051906020019080838360005b838110156101f45780820151818401526020810190506101d9565b50505050905090810190601f1680156102215780820380516001836020036101000a031916815260200191505b50965050505050505060405180910390f35b60008054905090565b60005481565b600080815480929190600101919050555084600160008054815260200190815260200160002060000181905550836001600080548152602001908152602001600020600101908051906020019061029a9291906104e6565b508260016000805481526020019081526020016000206002018190555081600160008054815260200190815260200160002060030181905550806001600080548152602001908152602001600020600401819055507fd078ca0ac2d54f36dc8c5acc7256dba628542f97da5c3e198e481904fea23e7d85858585856000546040518087815260200180602001868152602001858152602001848152602001838152602001828103825287818151815260200191508051906020019080838360005b8381101561037657808201518184015260208101905061035b565b50505050905090810190601f1680156103a35780820380516001836020036101000a031916815260200191505b5097505050505050505060405180910390a15050505050565b6000606060008060006001600087815260200190815260200160002060000154600160008881526020019081526020016000206001016001600089815260200190815260200160002060020154600160008a815260200190815260200160002060030154600160008b815260200190815260200160002060040154838054600181600116156101000203166002900480601f0160208091040260200160405190810160405280929190818152602001828054600181600116156101000203166002900480156104cc5780601f106104a1576101008083540402835291602001916104cc565b820191906000526020600020905b8154815290600101906020018083116104af57829003601f168201915b505050505093509450945094509450945091939590929450565b828054600181600116156101000203166002900490600052602060002090601f016020900481019282601f1061052757805160ff1916838001178555610555565b82800160010185558215610555579182015b82811115610554578251825591602001919060010190610539565b5b5090506105629190610566565b5090565b61058891905b8082111561058457600081600090555060010161056c565b5090565b9056fea265627a7a72315820de6d6d1b1178117a2237b20114baf3f38efca0953341fbca1fdc1da7d9f16b5064736f6c63430005100032",
  "source": "// SPDX-License-Identifier: GPL-3.0\npragma solidity >=0.4.22 <0.9.0;\n\n\ncontract ReceiptSystem{\n    uint public ReceiptCount = 0;\n    struct Receipt{\n        uint Rid;\n        string DateTime;\n        uint Cost;\n        uint Mid;\n        uint Cid;\n    }\n    event LogReceipt(uint Rid,string DateTime, uint Cost, uint Mid, uint Cid, uint ReceiptCount );\n    mapping(uint => Receipt) private Receipts;\n    function insertReceipt(\n        uint _Rid,\n        string memory _DateTime,\n        uint _Cost,\n        uint _Mid,\n        uint _Cid)\n        public {\n            ReceiptCount++;\n            Receipts[ReceiptCount].Rid = _Rid;\n            Receipts[ReceiptCount].DateTime = _DateTime;\n            Receipts[ReceiptCount].Cost = _Cost;\n            Receipts[ReceiptCount].Mid = _Mid;\n            Receipts[ReceiptCount].Cid = _Cid;\n            emit LogReceipt(_Rid,_DateTime, _Cost, _Mid,_Cid,ReceiptCount);\n            return;\n    }\n    function getReceipt(\n        uint index\n    )\n    public \n    view\n    returns(uint Rid,string memory DateTime, uint Cost, uint Mid, uint Cid){\n        return(\n            Receipts[index].Rid,\n            Receipts[index].DateTime,\n            Receipts[index].Cost,\n            Receipts[index].Mid,\n            Receipts[index].Cid);\n        \n    }\n    function getReceiptCount() \n    public \n    view\n    returns(uint count){\n        return ReceiptCount;\n    }\n    \n}\n",
  "sourcePath": "/Users/theebankumaresan/Documents/Capstone/flutter/Flutter_QR_Code_App/smartcontract/contracts/ReceiptSystem.sol",
  "compiler": {
    "name": "solc",
    "version": "0.5.16+commit.9c3226ce.Emscripten.clang"
  },
  "schemaVersion": "3.4.6",
  "updatedAt": "2022-11-27T00:23:13.252Z",
  "networkType": "ethereum",
  "devdoc": {
    "methods": {}
  },
  "userdoc": {
    "methods": {}
  }
}